{
  "contractName": "DeFi",
  "abi": [
    {
      "inputs": [],
      "name": "DAI",
      "outputs": [
        {
          "internalType": "address",
          "name": "",
          "type": "address"
        }
      ],
      "stateMutability": "view",
      "type": "function"
    },
    {
      "inputs": [],
      "name": "USDC",
      "outputs": [
        {
          "internalType": "address",
          "name": "",
          "type": "address"
        }
      ],
      "stateMutability": "view",
      "type": "function"
    },
    {
      "inputs": [],
      "name": "constuctor",
      "outputs": [],
      "stateMutability": "nonpayable",
      "type": "function"
    },
    {
      "inputs": [],
      "name": "contractState",
      "outputs": [
        {
          "internalType": "string",
          "name": "",
          "type": "string"
        }
      ],
      "stateMutability": "pure",
      "type": "function"
    },
    {
      "inputs": [
        {
          "internalType": "uint256",
          "name": "amountIn",
          "type": "uint256"
        }
      ],
      "name": "swapDAItoUSDC",
      "outputs": [
        {
          "internalType": "uint256",
          "name": "amountOut",
          "type": "uint256"
        }
      ],
      "stateMutability": "nonpayable",
      "type": "function"
    }
  ],
  "bytecode": "0x608060405234801561001057600080fd5b50610927806100206000396000f3fe608060405234801561001057600080fd5b50600436106100575760003560e01c806385209ee01461005c57806389a302711461007a578063da750a5714610098578063dfe4858a146100c8578063e0bab4c4146100d2575b600080fd5b6100646100f0565b604051610071919061077d565b60405180910390f35b61008261012d565b60405161008f9190610739565b60405180910390f35b6100b260048036038101906100ad919061052a565b610145565b6040516100bf91906107db565b60405180910390f35b6100d06102ff565b005b6100da610355565b6040516100e79190610739565b60405180910390f35b60606040518060400160405280600781526020017f6372656174656400000000000000000000000000000000000000000000000000815250905090565b73a0b86991c6218b36c1d19d4a2e9eb0ce3606eb4881565b600080604051806101000160405280736b175474e89094c44da98b954eedeac495271d0f73ffffffffffffffffffffffffffffffffffffffff16815260200173a0b86991c6218b36c1d19d4a2e9eb0ce3606eb4873ffffffffffffffffffffffffffffffffffffffff168152602001610bb862ffffff1681526020013373ffffffffffffffffffffffffffffffffffffffff16815260200142815260200184815260200160008152602001600073ffffffffffffffffffffffffffffffffffffffff16815250905061024c736b175474e89094c44da98b954eedeac495271d0f60008054906101000a900473ffffffffffffffffffffffffffffffffffffffff168561036d565b60008054906101000a900473ffffffffffffffffffffffffffffffffffffffff1673ffffffffffffffffffffffffffffffffffffffff1663414bf389826040518263ffffffff1660e01b81526004016102a591906107bf565b602060405180830381600087803b1580156102bf57600080fd5b505af11580156102d3573d6000803e3d6000fd5b505050506040513d601f19601f820116820180604052508101906102f79190610553565b915050919050565b73e592427a0aece92de3edee1f18e0157c058615646000806101000a81548173ffffffffffffffffffffffffffffffffffffffff021916908373ffffffffffffffffffffffffffffffffffffffff160217905550565b736b175474e89094c44da98b954eedeac495271d0f81565b6000808473ffffffffffffffffffffffffffffffffffffffff1663095ea7b360e01b85856040516024016103a2929190610754565b604051602081830303815290604052907bffffffffffffffffffffffffffffffffffffffffffffffffffffffff19166020820180517bffffffffffffffffffffffffffffffffffffffffffffffffffffffff838183161783525050505060405161040c9190610722565b6000604051808303816000865af19150503d8060008114610449576040519150601f19603f3d011682016040523d82523d6000602084013e61044e565b606091505b509150915081801561047c575060008151148061047b57508080602001905181019061047a9190610501565b5b5b6104bb576040517f08c379a00000000000000000000000000000000000000000000000000000000081526004016104b29061079f565b60405180910390fd5b5050505050565b6000815190506104d1816108c3565b92915050565b6000813590506104e6816108da565b92915050565b6000815190506104fb816108da565b92915050565b60006020828403121561051357600080fd5b6000610521848285016104c2565b91505092915050565b60006020828403121561053c57600080fd5b600061054a848285016104d7565b91505092915050565b60006020828403121561056557600080fd5b6000610573848285016104ec565b91505092915050565b61058581610828565b82525050565b61059481610828565b82525050565b60006105a5826107f6565b6105af818561080c565b93506105bf81856020860161087f565b80840191505092915050565b60006105d682610801565b6105e08185610817565b93506105f081856020860161087f565b6105f9816108b2565b840191505092915050565b6000610611600283610817565b91507f53410000000000000000000000000000000000000000000000000000000000006000830152602082019050919050565b6101008201600082015161065b600085018261057c565b50602082015161066e602085018261057c565b50604082015161068160408501826106f5565b506060820151610694606085018261057c565b5060808201516106a76080850182610704565b5060a08201516106ba60a0850182610704565b5060c08201516106cd60c0850182610704565b5060e08201516106e060e08501826106e6565b50505050565b6106ef81610846565b82525050565b6106fe81610866565b82525050565b61070d81610875565b82525050565b61071c81610875565b82525050565b600061072e828461059a565b915081905092915050565b600060208201905061074e600083018461058b565b92915050565b6000604082019050610769600083018561058b565b6107766020830184610713565b9392505050565b6000602082019050818103600083015261079781846105cb565b905092915050565b600060208201905081810360008301526107b881610604565b9050919050565b6000610100820190506107d56000830184610644565b92915050565b60006020820190506107f06000830184610713565b92915050565b600081519050919050565b600081519050919050565b600081905092915050565b600082825260208201905092915050565b600061083382610846565b9050919050565b60008115159050919050565b600073ffffffffffffffffffffffffffffffffffffffff82169050919050565b600062ffffff82169050919050565b6000819050919050565b60005b8381101561089d578082015181840152602081019050610882565b838111156108ac576000848401525b50505050565b6000601f19601f8301169050919050565b6108cc8161083a565b81146108d757600080fd5b50565b6108e381610875565b81146108ee57600080fd5b5056fea26469706673582212202b5d5c21312f53f638ed22cf38e05eeab1f756cba4bcf059613736f17c155af264736f6c63430008000033",
  "immutableReferences": {},
  "source": "// SPDX-License-Identifier: UNLICENSED\npragma solidity ^0.8.0;\nimport \"@openzeppelin/contracts/token/ERC20/ERC20.sol\";\nimport '@uniswap/v3-periphery/contracts/interfaces/ISwapRouter.sol';\nimport '@uniswap/v3-periphery/contracts/libraries/TransferHelper.sol';\n\ncontract DeFi {\n    address public constant DAI = 0x6B175474E89094C44Da98b954EedeAC495271d0F;\n    address public constant USDC = 0xA0b86991c6218b36c1d19D4a2e9Eb0cE3606eB48;\n    ISwapRouter private swapRouter;\n\n    function constuctor() public {\n        swapRouter = ISwapRouter(0xE592427A0AEce92De3Edee1F18E0157C05861564);\n    }\n    \n    function contractState() external pure returns (string memory) {\n        return \"created\";\n    }\n    \n    function swapDAItoUSDC(uint256 amountIn) external returns (uint256 amountOut) {\n        ISwapRouter.ExactInputSingleParams memory params = ISwapRouter.ExactInputSingleParams({\n            tokenIn: DAI,\n            tokenOut: USDC,\n            fee: 3000,\n            recipient: msg.sender,\n            deadline: block.timestamp,\n            amountIn: amountIn,\n            amountOutMinimum: 0,\n            sqrtPriceLimitX96: 0\n        });\n        \n        TransferHelper.safeApprove(DAI, address(swapRouter), amountIn);\n        \n        amountOut = swapRouter.exactInputSingle(params);\n    }\n\n}\n\ncontract DAIMock is ERC20(\"XXX\", \"YYY\"){ \n\n}",
  "sourcePath": "/Users/karthik.gupta/Karthik/Office/Workspace/Blockchain/EncodeAcademy/DeFi-Sample/contracts/DeFi.sol",
  "compiler": {
    "name": "solc",
    "version": "0.8.0+commit.c7dfd78e.Emscripten.clang"
  },
  "schemaVersion": "3.4.3",
  "updatedAt": "2021-10-05T17:24:01.900Z",
  "devdoc": {
    "kind": "dev",
    "methods": {},
    "version": 1
  },
  "userdoc": {
    "kind": "user",
    "methods": {},
    "version": 1
  }
}